:020000041000EA
:1000000000B5324B212058609868022188439860DF
:10001000D860186158612E4B002199600221596106
:100020000121F02299502B49196001219960352056
:1000300000F044F80222904214D00621196600F024
:1000400034F8196E01211966002018661A6600F04E
:100050002CF8196E196E196E052000F02FF8012189
:100060000842F9D1002199601B49196000215960AB
:100070001A491B48016001219960EB211966A021F2
:10008000196600F012F800219960164914480160C1
:100090000121996001BC002800D000471248134993
:1000A000086003C880F30888084703B5996A0420EC
:1000B0000142FBD001200142F8D103BD02B5186610
:1000C0001866FFF7F2FF186E186E02BD00000240BE
:1000D000000000180000070000035F00212200005C
:1000E000F4000018222000A00001001008ED00E03C
:1000F00000000000000000000000000074B24E7A12
:1001000000200420F7010010C3010010C5010010F9
:10011000C1010010C1010010C1010010C101001097
:10012000C1010010C1010010C1010010C701001081
:10013000C1010010C1010010C9010010CB01001065
:10014000CD010010CD010010CD010010CD01001037
:10015000CD010010CD010010CD010010CD01001027
:10016000CD010010CD010010CD010010CD01001017
:10017000CD010010CD010010CD010010CD01001007
:10018000CD010010CD010010CD010010CD010010F7
:10019000CD010010CD010010CD010010CD010010E7
:1001A000CD010010CD010010CD010010CD010010D7
:1001B000CD010010CD010010CD010010CD010010C7
:1001C00000BE00BE00BE00BE00BE00BE00F04BF888
:1001D000103800BEF2EB887180510410A051041059
:1001E0003402001090A31AE700202149086006C8D5
:1001F00081F3088810471F48006800282FD10DA4FC
:100200000ECC002902D000F012F8F9E71A491B4A77
:10021000002000E001C19142FCD1194988471949E9
:1002200088471949884700BEFDE701C901C29A42C3
:10023000FBD37047A0510410C00000207C070020B1
:100240005C58041000000420000004205C580410D6
:1002500000100420001004200000000070470B482C
:1002600003F060FE0047EFF30580C0B27047000066
:1002700008ED00E0000000D080070020AC1E002048
:10028000A1280010F10B00105D2800105756000047
:1002900006005250ABB3605324C700100600525002
:1002A000861C030234C70010060052505422A29D3F
:1002B00044C7001005005250DE65F4685C58041015
:1002C000F8B5C046054B0648033310B51B1A062B7C
:1002D00003D9044B002B00D0984710BD7C070020A9
:1002E0007C070020000000000648074910B5091AE5
:1002F0008910CB0F5918491003D0044B002B00D0A4
:10030000984710BD7C0700207C07002000000000FB
:1003100010B5074C2378002B09D1FFF7D3FF054B0D
:10032000002B02D0044800E000BF0123237010BD61
:100330008808002000000000A0AF0010094B10B595
:10034000002B03D00849094800E000BF08480368B3
:10035000002B02D1FFF7C8FF10BD064B002BF9D0D0
:100360009847F7E7000000008C080020A0AF0010BD
:100370007C0700200000000010B50B490B480AF074
:1003800075FC0321042000F049FC0321052000F046
:1003900045FC00220121042000F058FC002201212C
:1003A000052000F053FC10BD801A06005407002001
:1003B00030B583B00500009313000A000100074820
:1003C0000AF080FC0400831C02D0200003B030BD82
:1003D0002900034804F0BEFDF7E7C046540700209B
:1003E000DCAF0010F0B585B006000D00029203935B
:1003F0000AAB1F7801230122FFF7DAFF0400831CF8
:100400000CD00097039B029A310009480AF066FC61
:100410000400831C07D0200005B0F0BD3100054862
:1004200004F098FDF7E72978034804F093FDF2E71C
:1004300054070020DCAF0010A0AF001030B587B02B
:10044000050005A9F4230B70C63B4B700023022264
:100450007720FFF7ADFF0A2001F032FE0F2169443B
:10046000F6230B7004AC00230093023322007720A4
:10047000FFF7B8FF6A6823781B0261780B431360AB
:1004800007B030BD30B587B0050005A9F4230B7067
:10049000124B5B884B70002302227720FFF788FF06
:1004A0000F4B5B885800C01801F00AFE0F21694409
:1004B000F6230B7004AC0023009303332200772053
:1004C000FFF790FF23781B04627812021343A2788F
:1004D0001343DB116A68536007B030BD600600202B
:1004E0006806002070B50400FFF7A8FF6068124B93
:1004F0001A6851890368591A13894B43DB138360C7
:1005000065681223D05EC0021423D15EAB689C469E
:10051000614403F033FDE86063689A68D9688C46EB
:100520006244DA636268D36B08331B11916C8C46AA
:100530006344936470BDC046DC120020F0B583B004
:100540000400FFF79FFF6268D36B76498C466344D3
:1005500013646768386C04F063F9051CE6218905AB
:1005600004F021F9011C281C04F01DF904F07AF9AB
:1005700005006D4B1E680E22B35E4343DB123B61E8
:1005800067680223F05E04F04BF90190386C04F0C8
:1005900047F9E821890504F006F9011C019804F0E7
:1005A00002F904F05FF9786163681A6959698C4649
:1005B00062449A6162680021735E9B0091698C4677
:1005C00063445B0002339B10536367680423F05E4F
:1005D00004F026F90190386C04F022F9E421890531
:1005E00004F0E1F8011C019804F0DDF804F03AF998
:1005F000F86167680C23F05E04F012F9019028009E
:1006000004F00EF9019904F0CEF8DE21890504F01A
:10061000CAF804F027F938626268D369116A8C4617
:10062000634402339B1053626568F08804F0F2F86B
:10063000061C6B6A8022120294466344180004F080
:10064000E9F8E021890504F0AEF8011C301C04F043
:10065000AAF804F035F9A86365686B686A6B981AA4
:1006600004F0D8F8314904F09EF804F029F96864E0
:100670006568686C00284FDB4000A96B03F0A6FC9E
:1006800068656568686D04F0CBF8EE21890504F0B3
:100690008AF8011C04F087F804F0E4F8A8626568A1
:1006A000A86A04F0BDF8224904F07DF804F0DAF8F5
:1006B00004F0B6F8DE21890504F075F804F0D2F8EC
:1006C00028636568686D04F0ABF81A4904F06BF8AC
:1006D00004F0C8F804F0A4F8DE21890504F063F8FA
:1006E00004F0C0F8E8626468656D236BE26A9446C2
:1006F00063441800104B9C46604404F091F8F621C6
:10070000890504F050F804F0ADF82818E36C9C4615
:100710006044E06403B0F0BDA96B03F057FC4000F7
:100720006865AEE760F0FFFFDC1200200050C346B2
:1007300000E03D4500E8E5C5CF0E000010B504001F
:100740004368986D04F06CF8084904F018F80849FB
:1007500004F0BAF9011CFE20800504F00AF8646870
:10076000044904F020F8E06510BDC04600D4C64737
:10077000AEDC423E002A2D4710B54468A06D04F05F
:100780004FF8024903F0FBFF206610BD95DF563F8E
:1007900010B5124804F0ACFB114C6368196811489D
:1007A00004F0D8FB636899680F4804F0D3FB6368D2
:1007B000D9680E4804F0CEFB6368D96B0C4804F08E
:1007C000C9FB63689A6C03210A4804F0C3FB6368A1
:1007D000196D094804F0BEFB10BDC04674B400108A
:1007E000DC120020A0B40010B4B40010D4B4001087
:1007F000F4B4001008B5001034B5001010B52D4841
:1008000004F076FB2C4C6368996D2C4804F0A2FB35
:100810006368196C2A4804F09DFB636819692948CC
:1008200004F098FB63685969274804F093FB6368F8
:100830009969264804F08EFB6368D969244804F05E
:1008400089FB6368196A234804F084FB6368596A6A
:10085000214804F07FFB6368596B204804F07AFB61
:100860006368996B1E4804F075FB6368596C1D48FA
:1008700004F070FB6368596D1B4804F06BFB636800
:10088000996A1A4804F066FB6368196B184804F00B
:1008900061FB6368D96A174804F05CFB6368DA6C33
:1008A0000321154804F056FB6368996D134804F062
:1008B00051FB10BD34B20010DC12002060B20010F9
:1008C00074B2001088B20010A8B20010C8B20010B4
:1008D000E8B2001008B3001028B3001048B30010AD
:1008E0005CB3001070B3001084B30010B8B30010F4
:1008F000D8B30010F8B3001008B5001018B40010F9
:1009000010B5054B5B68D86D03F0E0FF02000B00EB
:10091000024804F01FFB10BDDC120020ACB0001038
:1009200010B5054B5B68186E03F0D0FF02000B009A
:10093000024804F00FFB10BDDC1200203CB4001094
:1009400070B5050042680023D364426893640024B4
:1009500007E02800FFF7C6FD2800FFF7EFFD013490
:10096000E4B2022CF5D96C680321E06C03F006FBBD
:10097000A0656C680321A06C03F000FB20652800D3
:10098000FFF7DCFE2800FFF7F7FEFFF701FFFFF798
:1009900035FFFFF7B5FFFFF7C3FF70BD10B5224865
:1009A00004F0D8FA214C23680021595E204804F055
:1009B000D1FA23680221595E1E4804F0CBFA23685D
:1009C0000421595E1C4804F0C5FA2368D9881B48E5
:1009D00004F0C0FA23681989194804F0BBFA2368A7
:1009E0005989184804F0B6FA23680C21595E164854
:1009F00004F0B0FA23680E21595E144804F0AAFAF4
:100A000023681021595E124804F0A4FA23681221C9
:100A1000595E104804F09EFA23681421595E0E486E
:100A200004F098FA10BDC046D4B00010DC120020CB
:100A300000B100101CB1001038B1001054B100100A
:100A400070B100108CB10010A8B10010C4B100103A
:100A5000E0B10010FCB1001018B2001070B58AB0FF
:100A600005000E0004AC16220021200004F028F935
:100A70000F216944AA230B70002300931633220030
:100A80007720FFF7AFFC23781B021BB26278134379
:100A90002B80A3781B021BB2E27813436B8023796F
:100AA0001B021BB262791343AB80A3791B02E2796C
:100AB0001343EB80237A1B02627A13432B81A37AC0
:100AC0001B02E27A13436B81237B1B021BB2627B06
:100AD0001343AB81A37B1B021BB2E27B1343EB816D
:100AE000237C1B021BB2627C13432B82A37C1B0260
:100AF0001BB2E27C13436B82237D1B021BB2627D1F
:100B00001343AB823560FFF749FF0AB070BD0000A8
:100B100070B584B004000E00FA20800001F0D0FA15
:100B2000184804F0E5F90B216944D0230B7003AD9C
:100B30000023009301332A007720FFF753FC2B7822
:100B4000552B0CD0104804F0D3F903AB197855227B
:100B50000E4804F0FFF90E4801F0B2FAF2E70D4832
:100B600004F0C6F903AD29785522084804F0F2F9DB
:100B70002B782372666021000748FFF76FFF04B0EF
:100B800070BDC04614B000102CB0001058B000105A
:100B90008813000088B00010E812002010B501781A
:100BA0000131CA0F8B1801211940891AC9B201708D
:100BB0004B1E9941C9B2002007F016F810BD000085
:100BC00010B504F0D3F907F073F9002806D1FFF748
:100BD000D3FB04490448FFF79BFF10BD034804F012
:100BE000B9F9FAE778120020DC12002054B50010A1
:100BF00000B583B0FFF7E4FF00226B46DA71FA20FC
:100C0000C00001F05DFA6B46D81DFFF7C7FF024830
:100C1000FFF796FEF3E7C046DC12002010B5830014
:100C2000084A944663441C6840226240C024144031
:100C30008022520113431C60C000034B9C46604459
:100C4000416010BD04C001400040014080000B4BDA
:100C50009C46604400290DD00823002A0CD10022B4
:100C60001343026853400C221A4080235B0118434F
:100C7000026070470023F0E70422F1E704C001405E
:100C8000002909D18000094B9C466044C0239B0188
:100C900018430223036070478000044B9C46604465
:100CA00080239B01184302230360F4E704C0014042
:100CB00070B5D0231B061B689D00094C2C5920429F
:100CC00007D19B00044306481C500D2000F0F2F9A8
:100CD00070BD044B044ACC21044801F0C3FDC0465A
:100CE00020120020C0B5001068B50010ECB500104F
:100CF00010B50400D0231B061B689B000A4A9B58B2
:100D000018420BD00D2000F0EBFAD0231B061B6815
:100D100005499B005A58A2435A5010BD034B044A40
:100D2000D621044801F09EFD2012002030B60010AC
:100D30009CB50010ECB50010C308072210408000DD
:100D400081403C339B00014A99507047004001406C
:100D5000F8B507000C0016001D00FFF7EDFFFB08BB
:100D60009B00ED180720384080008440002E04D1FD
:100D7000C0239B011D432C60F8BD80239B011D43B4
:100D80002C60F9E710B5D0231B061B68002B03D19C
:100D9000024BFFF7DDFF10BD014BFAE700410140B8
:100DA0003041014010B501238340D02212069362E6
:100DB00093610521FFF732FF10BD0000EFF31080B3
:100DC00072B6034B1B68002BFBD0BFF35F8F7047DD
:100DD0002C0100D0BFF35F8F0022024B1A6080F31A
:100DE000108870472C0100D070B505000E0014006B
:100DF000FFF7E4FFF208AA18157807213140012314
:100E00008B402B4205D1DBB22B431370FFF7E2FF7F
:100E100070BD3100200001F0BFFDF0B583B00700C8
:100E2000019114001E00FFF7C9FFB4420ED8E2087A
:100E3000BA1815780721214001238B402B4201D09D
:100E40000134F2E7DBB22B43137001E0012464426A
:100E5000FFF7C0FF002C02DB200003B0F0BD019BB8
:100E6000002BF9D0089801F097FD000070B5040040
:100E70000D00FFF7A3FFEB08E3181C7807212940BA
:100E800001228A40224204D094431C70FFF7A2FF43
:100E900070BD034B034A3321034801F0E3FCC04615
:100EA0006CB600105CB600108CB60010034B1B68CB
:100EB00002201840431E9841C0B2704700C006404F
:100EC000002307E0054A9A189200BFF35F8F0021C4
:100ED000116001331F2BF5D97047C0464000003424
:100EE000054A1078431CDBB21370172B02D910226D
:100EF000014B1A707047C0467006002000B583B0E1
:100F00000100044B00931F2318220348FFF785FFBD
:100F100003B000BDD4B600105C0D0020074B9B68E9
:100F2000103080001950BFF35F8FBFF35F8F002137
:100F3000034B196082F310887047C04600ED00E053
:100F4000240100D01F23181A7047000010B5091A99
:100F50000B1F0A4A94466144094A914208D8DA07AD
:100F600006D45B105B055B0D0648184380B210BDCC
:100F7000054B064A9921064801F074FCFC07000065
:100F8000FE0F000000E0FFFF14B900100CB70010C6
:100F900044B9001010B5091A04394C08090B08D1DE
:100FA0004905490D064A11430180064B23434380FE
:100FB00010BD054B054AA121054801F053FCC04670
:100FC00000F0FFFF00F8FFFF88B7001018B700100F
:100FD00044B9001001238340034A10681840431E9F
:100FE0009841C0B27047C04600E100E0002902D13C
:100FF000034B18607047034B1860034B1860F9E708
:1010000080E100E080E200E000E100E010B50123B3
:1010100083401800FFF7EAFF10BD00000123834062
:10102000014A13607047C04600E200E0024B9B6833
:1010300010308000C058704700ED00E010B5FFF799
:10104000F5FF002807D0054BC01A2F2801D9002032
:1010500010BD0120FCE70020FAE7C046740600201E
:1010600070B504000D00EFF3108672B60C4B1B68D0
:10107000002BFBD0BFF35F8F2000FFF7D7FF094B9A
:10108000984201D0A84205D1320029002000FFF784
:1010900045FF70BD044B054A7C21054801F0E2FB89
:1010A000240100D0CD010010DCB80010F0B6001013
:1010B00044B90010F0B5DE4657464E464546E0B509
:1010C00089B0019002911500EFF3108B72B6734B4B
:1010D0001B68002BFBD0BFF35F8F714B00269E5720
:1010E000002E41DB73009B199A006E4891468144A3
:1010F0004B4606229A566A4B1A706B4B9A68019BB4
:1011000010339B00D7583C003B1A2F2B38D9674B24
:101110009F422FD105AC664B238073009A469B19E2
:101120009800604FC01902306249FFF70FFF6080DE
:10113000614BA380FF23A371E571029BA36056441A
:10114000B300FB1807CC07C301274B463B431F00E6
:101150005A4639000198FFF7E1FE09B03CBC9046C1
:101160009946A246AB46F0BD544B554ACD21554851
:1011700001F078FB544B524AD421524801F072FBE3
:10118000C04338180C2102F021FF002912D101239D
:101190009C43A24621000024CB799D4211D2062215
:1011A0008A56002A0CDB53009B189A000C003D491C
:1011B0008918F1E7454B424AE021424801F052FBD1
:1011C0000C00002C3BD005AB414A1A80813A5A8072
:1011D0000623E3569846002B2EDB73009B199800DC
:1011E000304BC0180430221DA388D90A1C291DD1F8
:1011F00059054915023149005118FFF7A7FE05AB03
:101200009A46988042469A71DD71029A0792201D93
:101210004946FFF79BFEA080A67173009E19B2009D
:10122000204B9B18524613CA13C391E7294B2A4AF5
:10123000A721244801F016FBBD200002DFE705AC22
:101240001B4B2380730098469B199800154FC319B8
:101250000393981C1749FFF779FE6080039B181DC4
:101260005146FFF773FEA0801C4B5246D21B5241E1
:1012700053431B0DA371E571029BA3604644B30069
:10128000FB1807CC07C3124B52461380813B538097
:1012900001274B463B431F005AE7C046240100D0BC
:1012A000711200207406002000ED00E0CD01001056
:1012B00000A1FFFFA406002000BDFFFF98B70010AB
:1012C00040B7001044B90010C0B70010E8B70010D4
:1012D000014800005CB8001030B70010AAAA000056
:1012E000F0B5CE4600B582B005000F00EFF31089CF
:1012F00072B6564B1B68002BFBD0BFF35F8F544B6D
:101300009A682C001034A300D658524B9E4200D14C
:1013100098E0BE4200D197E000964F4BF31A2F2B76
:1013200008D94A4631002800FFF7F8FD02B004BC96
:101330009146F0BD2800FFF74DFE019000212800E6
:10134000FFF764FEBFF35F8FFEF78DFF011E01D034
:10135000844211D10123009C9C430020A3689F423A
:1013600012D00622A256002A0DDB53009B189A00C9
:101370002000394CA418F1E7384B394A2C21FF31B1
:10138000384801F06FFA20009F4254D10627E757F2
:10139000002F36DB7A00D21991002F4B5B189A6828
:1013A000A260DA79E27106229A56A2719B795BB249
:1013B000002B23DB201D284A8B181A1D9B88D90A75
:1013C0001C2915D159054915023149005118FFF75B
:1013D000BDFDA0807B00DB199A001F4B9B18224AA1
:1013E00011789971177001992800FFF70FFE98E79F
:1013F0001E4B1F4AA7211B4801F034FABD200002F2
:10140000E7E7002912D100280ED0FF238371194B82
:101410008380154A1378A371174B0F49641A6441EE
:1014200063431B0D1370DEE70A4EF2E7201D1349DC
:10143000FFF7B0FDD7E7124B094A6021FF31094899
:1014400001F010FA034E6CE7024E6AE7240100D067
:1014500000ED00E0CD01001074060020B0B80010CF
:1014600058B7001044B90010711200205CB8001089
:1014700030B7001000BDFFFFAAAA0000AE06002092
:10148000D4B8001010B5032304009C43064A9446C8
:10149000644422681840C000FC3383409A43814072
:1014A0001143216010BDC04600E400E0F8B504001F
:1014B00001260643304BF31A2F2B28D8FEF7D3FE14
:1014C00000282BD0EFF3108572B62C4B1B68002B35
:1014D000FBD0BFF35F8F2A492300274A9B1A5B4149
:1014E0005943090D49B2274B9B6880001B589E4207
:1014F0001BD00023032B28D85A00D21890001E4A74
:101500001218927952B28A4214D00133F2E71E4B7C
:101510001E4AC22149001E4801F0A4F91D4B1B4A76
:101520008821FF311A4801F09DF9164B9B681A4A31
:101530001A500DE010485A00D718BE008619FF2730
:10154000B771164BB380012300E00023002B0BD0B2
:10155000134B1A78A2711970BFF35F8F0022074BEB
:101560001A6085F31088F8BD0E4B084ACC2149005B
:10157000074801F077F9C04674060020240100D026
:10158000AAAA000000ED00E074B800106CB70010CB
:1015900044B900109CB80010CD01001000BDFFFF41
:1015A00071120020A8B800100023044A03E0044987
:1015B000116001330432072BF9D9704700E400E0D1
:1015C0008080808010B5D0231B061C68FFF7BAFC12
:1015D000010002480019FFF749FC10BD6412002009
:1015E00000B583B00100D0231B061868064B1818FD
:1015F000064B009305230022FFF70FFC002801DBB8
:101600001F23181A03B000BD6412002088B900100F
:1016100070B504000E001500FFF762FC0100200009
:1016200000F006F8A680E580BFF35F8F70BD000074
:10163000024B9C46614489000160704740000034C1
:1016400070B505000C00080000F0CAFD200000F095
:10165000AFFE0849200000F0EFFDFFF741FC064B0C
:101660009C466044800068602C75A400034BE550E4
:1016700070BDC0468D1900104000003410120020CB
:101680000A4B1A68EFF3108172B61368002BFCD076
:10169000BFF35F8F054B1B68BFF35F8F00221A609B
:1016A00081F3108840BF00200021704734120020D1
:1016B00010B5002922D003681B7B99421ED8174B16
:1016C0009C466144090183689C4661440C684968F2
:1016D000002A19D003681B7B9A4215D883680F48EB
:1016E0008446624412019A1810685368020001206F
:1016F0008B4201D80ED00020C0B210BD084B094A61
:101700003B21094801F0AEF8054B064A3B2106484B
:1017100001F0A8F8A242EFD8EDE7C046FFFFFF0FA7
:101720003CBC0010E4BA001044BD001010B5002904
:101730001FD0037B99421CD84B005B18033B046805
:10174000A446634400291AD0002A1ED0914222D018
:10175000002A26D0047BA24223D8046850008018B7
:101760000338201881701978002920D041701A7030
:1017700010BD104B104A6821104801F073F8104B4F
:10178000104A6F310D4801F06DF80F4B0D4A702172
:101790000A4801F067F80D4B0A4A7121074801F029
:1017A00061F8044B044A6821044801F05BF81A70A0
:1017B000DEE7C04694BC0010A4BA0010B0BC001014
:1017C00000BD0010B0BA00100CBD001018BD001014
:1017D00070B506000D001400002916D0002A01D1B2
:1017E000080013E0806873689847002806D12A0033
:1017F00021003000FFF79AFF200007E022002900B7
:101800003000FFF793FF280000E0100070BD0000DB
:1018100070B5CE4600B583B00500009201930AABC7
:101820001C780BAB1B789946002C28D003685A7B98
:10183000944214D0002C0CD01A7B944209D81A6818
:1018400063001B19033BD3189B78002B08D001239E
:1018500006E0434B434A6821434801F003F8012363
:10186000002B06D1002C28D1200003B004BC9146E7
:1018700070BD3E4B3E4A65213E4800F0F3FF0368D1
:101880009C7B002CEED012D01A7B94420FD86200C1
:101890001219033A19688C466244517899730029E9
:1018A00000D1D9730023937053701370DAE72C4B77
:1018B0002C4A68212C4800F0D5FF002C39D02B6829
:1018C0001B7B9C4235D82C4BE3181B01AA6894461D
:1018D00063440099019A19605A60089A9A60099ABB
:1018E000DA602E68002C2AD02FD0337B9C422CD873
:1018F00063001B19033B32689446634400229A70CC
:101900005A701A70717B22003000FFF761FF70730C
:101910008442A9D1287D009A019B00F0D5FC061EC7
:1019200002D04B46002B16D00C9B002B9CD01E7077
:101930009AE7124B124A3B210E4800F093FF114BDD
:10194000114AA521084800F08DFF054B054A682182
:10195000054800F087FF2868210000F0CDFEE3E78E
:1019600094BC0010A4BA0010B0BC001068BB0010FA
:101970001CBB001044BD0010FFFFFF0F3CBC00105B
:10198000E4BA001040BD0010C4BA0010F0B5D6464D
:101990004F464646C0B58CB00B908200B54BD5582B
:1019A00037E100230024089309946A68EFF3108656
:1019B00072B61368002BFCD0BFF35F8F2F687C7B5F
:1019C000002C41D100239846002700206B68BFF30C
:1019D0005F8F00221A6086F31088002F00D116E175
:1019E00053461E02264341463000B84706900791F1
:1019F0006A68EFF3108972B61368002BFCD0BFF34E
:101A00005F8F079B002B00DB89E02B69002B00D147
:101A100085E0B34271D1089A099B08921E0006988E
:101A20000799121A8B419E4203D805D10899914219
:101A300002D901225242D317002B64DA8E4B8F4A0F
:101A40003F218F4800F00EFF002C1AD03A7B9442C1
:101A500017D88C4BE2181201AB6898469044434665
:101A60001A685B68121A8B411000002B0FDD434689
:101A70001A685B680B9800F027FC00239846002743
:101A8000A4E7814B814A3B21814800F0EBFE002B0B
:101A900001D10028EBD10021380000F023FEA04244
:101AA00019D143461A685B680892099343469F68B8
:101AB000DB689846002F14D0002C18D02B681B7BB5
:101AC0009C4214D8631EEA68D35C9A461B021843F2
:101AD000286100207AE76F4B6F4A8C216C4800F038
:101AE000C1FE6E4B6C4A9021694800F0BBFE664B0C
:101AF0006B4A4021664800F0B5FE6A4B664A9F215A
:101B0000634800F0AFFE002104910131039102947B
:101B10004146019100972800FFF77AFE6EE0079B8F
:101B2000002B0EDD2B69002B11D0B34225D100F024
:101B300063FB002927DA504B504A3F21504800F000
:101B400091FE069A079B002B01D1002AEAD12B684F
:101B5000002C69D05A7B94423CD0002C34D01A7BA4
:101B6000944231D862001219033A19688C466244D3
:101B70009278002A2FD001222DE04A4B464AA2211A
:101B8000434800F06FFE0890069A079B12184B41DD
:101B9000994202D804D1904202D901225242D3176D
:101BA000002B05DA344B354A3F21354800F05AFE08
:101BB0000021049101310391029441460191009763
:101BC0002800FFF725FE19E0374B384A68213848CE
:101BD00000F048FE0122002A26D1DA7B002A29D112
:101BE000DC73002C39D02B681B7B9C4235D8013C20
:101BF000EB689C46644423780133237000232B61F7
:101C00006A68BFF35F8F136089F310880120002892
:101C100029D000F0F1FA002900DBC2E6164B174A82
:101C20003F21174800F01EFE224B234AF621204890
:101C300000F018FE002A0AD0197B8A4207D851000A
:101C40008A18033A19688C4662445470C8E7164BE8
:101C5000164A6821164800F005FE0B4B104A402139
:101C60000B4800F0FFFD0CB01CBC90469946A24604
:101C7000F0BDC04610120020BCB900108CBA001094
:101C8000D8B90010FFFFFF0F3CBC0010E4BA0010F1
:101C900044BD001090BB001034BB0010A8BB001066
:101CA000F0BA0010B4BB001094BC0010A4BA00102D
:101CB000B0BC0010F0BB0010D4BA001010B50A4B35
:101CC0005B68002B04D00A210848FFF7B1FC10BD67
:101CD000054C2300064A1021206800F033FC032144
:101CE0002000FFF7ADFCEEE7BC0600203412002018
:101CF000B116001010B5064B5B68002B01D00448EC
:101D000010BD044B044A5C21044800F0ABFDC04602
:101D1000BC06002070BC001004BB001044BD0010C5
:101D2000F0B5DE4657464E464546E0B589B080469A
:101D300016001F00129B994614AB1B789A4600228E
:101D40001F236B441A7030E000280AD04246126804
:101D5000127B904205D8421E4146C9688A5C934670
:101D600043E0424B424A4021424800F07BFD00F0F4
:101D700043FA002905DA404B404A3F21404800F031
:101D800071FD24184D41A94202D804D1A04202D9C4
:101D900001246442E517002D05DA374B374A3F210D
:101DA000374800F05FFD26002F0043465B68EFF3E5
:101DB000108572B61A6854425441E4B2002CF9D12D
:101DC000BFF35F8F1F236B4404930023039302939D
:101DD000139B01934B46009332003B004046FFF7B4
:101DE00017FD031EB0D10022934641464968BFF358
:101DF0005F8F00220A6085F31088002B2AD01F23F2
:101E00006B441B78002B02D15A4614020443002B6A
:101E100022D05346002B1FD013992000C84704003E
:101E20000D0003000B431FD00029A0DA32003B0055
:101E3000361BAF41BB4202D804D1B24202D90126BF
:101E40007642F717002FB0DA0B4B0C4A3F210C48B3
:101E500000F008FD01246442200009B03CBC90461B
:101E60009946A246AB46F0BD0024F5E73CBC001005
:101E7000F0BA001044BD0010BCB900108CBA0010BC
:101E8000D8B9001070B504004268EFF3108572B63F
:101E90001368002BFCD0BFF35F8FCAB22668737B38
:101EA0009A4215D0002A0DD0337B9A420AD85300AB
:101EB0009B18033B3068844663449B78002B23D1F6
:101EC000002006E0214B224A6821224800F0CAFC8B
:101ED0000120002834D02369994217D0090AC9B2D9
:101EE000002A1AD023681B7B9A4216D8531EE0683A
:101EF000C35C994217D000206368BFF35F8F002254
:101F00001A6085F3108870BD0120E2E7124B134A76
:101F100085214900124800F0A5FC124B124A4021CD
:101F20000F4800F09FFC1100300000F0E5FB002896
:101F3000E2D10E4B094A1221FF31094800F092FC10
:101F400023699942D8D100232361D5E794BC0010BE
:101F5000A4BA0010B0BC001014BC001050BB00109C
:101F600044BD00103CBC0010F0BA001038BC00109A
:101F7000F0B587B006000F00FEF775F9002813D101
:101F800006246442E517A4197D41BD4202D803D15D
:101F9000B44201D900240025002D08DA2C4B2D4A2B
:101FA0003F212D4800F05EFC2C4800F0F5FC049425
:101FB000059500F021F9002905DA254B254A3F2136
:101FC000254800F04FFC241A8D41002D12DDFFF74B
:101FD00091FE002302930193214B0093049A059BE9
:101FE000FFF79EFE002822DA3000390000F010F9D9
:101FF00007B0F0BD002DF7D1002CE8D1F4E70023A5
:1020000000E00023002BEFD1164B1A68EFF310818C
:1020100072B61368002BFCD0BFF35F8F114B1B68A7
:10202000BFF35F8F00221A6081F3108820BF0499EC
:10203000059A0D4B5B6A9A42E3D80B48806A884246
:1020400003D29A42DBD00123DCE70123DAE7C04662
:10205000BCB900108CBA0010D8B9001080BD0010B7
:1020600081160010341200200040054070B50400B5
:102070000D0000F0C1F8002905DA0E4B0E4A3F2191
:102080000E4800F0EFFB02000B00001969418B4283
:1020900002D804D1824202D901204042C11700294E
:1020A00005DA044B044A3F21044800F0DBFBFFF74C
:1020B0005FFF70BDBCB900108CBA0010D8B9001019
:1020C00010B5FA2292000023002102F035FBFFF741
:1020D000CDFF10BD70B584B005000C00FFF70AFEFF
:1020E000002302930193194B00932A002300FFF76A
:1020F00017FE061E11DD20BFFFF7FCFD3100FFF7C4
:10210000C1FE134B5B6A9C421BD8114A926AAA42D9
:102110001AD29C4213D0012014E00D4B5B6A9C4202
:1021200009D80B4A926AAA4207D29C4201D00120E8
:1021300008E0002006E0002004E0012002E000208A
:1021400000E0002004B070BD0120FBE78116001004
:102150000040054070B5EFF305833F20184010386C
:10216000EFF3108472B6194B1B68002BFBD0BFF342
:102170005F8F012319008140154A5163154A127877
:102180001500C5402B4214D0114B5D6A8300124EDE
:102190009B599D4206D38300104D5B598A430D49DC
:1021A0000A7007E00A4A031D9B00995899500023C2
:1021B00000E00023BFF35F8F0021044A116084F325
:1021C0001088002B00D0984770BDC046280100D071
:1021D000004005407612002040120020400C0020F4
:1021E00010B50100024A0348FEF7FEFD10BDC046CF
:1021F000ECBD00106D120020044B596A00E019007C
:10220000024B986A5B6A9942F9D1704700400540D9
:10221000084B5B6A01E0074B5B6A8B42FBD301E032
:10222000044B5B6A8B4203D1024B9B6A8342F7D318
:102230007047C0460040054070B504000D00EFF344
:10224000108672B61B4B1B68002BFBD0BFF35F8F51
:10225000002D1CD02000FEF7E9FE174B98420BD052
:1022600019002000FEF7FCFE01212000FEF7CEFE43
:102270000123A340114A1360A400114BE550BFF3A2
:102280005F8F00220B4B1A6086F3108870BDA2008E
:1022900000210B4BD1500122A2400A490B789343F5
:1022A0000B7005492000FFF71BF800212000FEF706
:1022B000ADFEE4E7280100D055210010386005404C
:1022C000400C002076120020F0B5DE4600B584B048
:1022D0000500140001921E000293FFF78DFF039486
:1022E0008E422CD9EFF3108B72B6294B1B68002B52
:1022F000FBD0BFF35F8F274A17780124AC40E3B2CD
:102300003B431370244B5C632A1D92000199D1500A
:10231000AA002249029850501B6A23421BD11E4B2F
:102320001B6C234211D00020BFF35F8F0022184B9B
:102330001A608BF3108804B004BC9346F0BD8E4243
:1023400001D18442CED80120F5E7154B154AC121B1
:10235000154800F087FAFFF74FFF8E4214D802D1DC
:10236000039B834210D80B4B1B789F420ED00A4B25
:102370001C625C631F222A40012393400B4A1360B6
:10238000044B1F700120CFE70020CDE70120CBE7F1
:10239000280100D0761200200040054040120020A5
:1023A00010BE0010D0BD001034BE001080E200E06E
:1023B00010B5EFF3108472B60A4B1B68002BFBD0EC
:1023C000BFF35F8F01238340074A136207490A78EE
:1023D0009A430A70BFF35F8F0022024B1A6084F3A6
:1023E000108810BD280100D0004005407612002062
:1023F00010B500291FD0037B99421CD84B005B18F5
:10240000033B0468A446634400291AD0002A1ED066
:10241000914222D0002A26D0047BA24223D804680D
:10242000500080180338201881701978002920D0B6
:1024300041701A7010BD104B104A6821104800F00E
:1024400011FA104B104A6F310D4800F00BFA0F4B88
:102450000D4A70210A4800F005FA0D4B0A4A712115
:10246000074800F0FFF9044B044A6821044800F0D3
:10247000F9F91A70DEE7C04694BC00107CBE00106B
:10248000B0BC001000BD001088BE00100CBD0010D4
:1024900018BD001070B506000D001400002916D0FC
:1024A000002A01D1080013E080687368984700286B
:1024B00006D12A0021003000FFF79AFF200007E034
:1024C000220029003000FFF793FF280000E01000F1
:1024D00070BD000010B50023437301338373037B89
:1024E000C373012308E05A00D218033A01688C46EE
:1024F00062440133DBB25370027B93420AD2002B59
:1025000002D0027B9342EED90B4B0C4A68210C4857
:1025100000F0A8F9002A09D0924207D801685300B8
:102520009A18033A8A180023537010BD024B034ACD
:102530006821034800F096F994BC00107CBE00109E
:10254000B0BC001010B5017342608360FFF7C2FF9A
:1025500010BD000070B50400002901D1080070BD55
:10256000002928D0037B994225D84B005B18033BF8
:102570000268944663445A78002AEFD021D0007B49
:1025800082421ED85000801803382568AC4660444B
:102590004678002545705D702000FFF77BFF050041
:1025A00031002000FFF7D6FF020029002000FFF7CE
:1025B00071FF0100D2E7064B064A6821064800F089
:1025C00051F9034B034A6821034800F04BF9C04618
:1025D00094BC00107CBE0010B0BC001070B50500AB
:1025E0000C001600002928D02DD0037B99422AD850
:1025F0004B005B18033B0268944663445A78002AF8
:1026000027D19A78002A2AD11978FFF7A3FF03006F
:10261000002E03D0EA7B002A27D1EC73002B37D1A0
:10262000002C49D02B7B9C4246D82A6863001C1999
:10263000033C14190023637070BD224B224A3821D9
:10264000224800F00FF9224B224A6821224800F06C
:1026500009F9224B1C4A3A211C4800F003F9204B8F
:10266000194A3B21194800F0FDF8002A0AD0297BBD
:102670008A4207D851008A18033A29688C46624476
:102680005470CAE7124B134A6821134800F0EAF865
:10269000002B0BD02A7B934208D843001B18033B26
:1026A0002A689446634400229A70B9E7084B094AA5
:1026B0006821094800F0D6F8054B064A682106480B
:1026C00000F0D0F8E8BE00109CBE0010F0BE001074
:1026D00094BC00107CBE0010B0BC001030BF0010D5
:1026E00058BF001070B504000A00457B2900FFF7B1
:1026F00075FF6073280070BD10B5040000296AD012
:10270000437B99420ED0002911D0037B99420ED809
:102710004B005B18033B0268D0188378002B0CD168
:10272000002059E00121FFF7DDFF012054E02B4B91
:102730002B4A68212B4800F095F8002B1AD0227BF9
:10274000934217D85A00D318033B2268D218137843
:10275000994215D0002B16D0227B934213D85A00F1
:10276000D318033B2268D2185378994211D0002B1A
:10277000F0D111E0194B1A4A68211A4800F072F89A
:10278000437813700AE0154B154A6821154800F08C
:1027900069F8437853700123002B10D00023837015
:1027A000437001222000FFF719FF0200617B88427D
:1027B0000BD02000FFF76EFE607301200CE00A4B87
:1027C0000A4A67210A4800F04DF80A4B074A6D2172
:1027D000074800F047F8002010BDC04694BC001028
:1027E0007CBE0010B0BC0010A8B80010B0BE001035
:1027F000F0BE0010C8BE001010B50400FEF770FB5C
:1028000001002000FEF714FFFF232371BFF35F8F49
:1028100010BD10B50400FEF763FB01002000FEF7B9
:1028200007FFFF23237100236371BFF35F8F10BD88
:10283000034B9C46614489000160BFF35F8F704782
:102840004000003410B504000120FEF757FB0100E2
:102850002000FFF7EDFF10BD00BEFDE710B5FFF74C
:10286000FBFF000010B582B00C001900002A0CD04C
:10287000084B002A0BD00192009323000200064867
:1028800002F068FB0120FFF7E7FF044BF1E7034A82
:10289000F1E7C046A0C00010B0C00010D0B00010DA
:1028A00070B52B4A2B4B1A602B4A2C4B1A602C4BC1
:1028B0009A68294B9343FAD12A4C01E008CC9847F7
:1028C000294B9C42FAD300F005F9284A234B1A60A1
:1028D000234B9B68DB43DB01FAD1254B40229A67EF
:1028E0005A671A67DA66234C03E02000FFF791FF6E
:1028F0000834214B9C420FD22368002B07D0012BB8
:10290000F3D01E4B1E4A83211E48FFF7ABFF200069
:10291000FFF772FF0834ECE71B4CA1681B4DC02287
:10292000280002F0D3F9A560FDF79DFC002800D037
:1029300000BEFEF7C5FAFEF737FEFFF7BFF9144CED
:1029400001E008CC9847134B9C42FAD370BDC046B7
:10295000BFCDFBFE00E00040FE7F3C0000F00040E9
:1029600000C000406407002074070020FFFFFF0143
:1029700000F001405C0700206407002010C1001037
:10298000E0C0001030C1001000ED00E000000020A9
:10299000740700207C0700200FB400B583B00848FE
:1029A00002F0A6FA049B002B07D005A9019118009C
:1029B00002F0AEFA034802F09BFA0120FFF74CFF49
:1029C000F0C0001030B5001010B50148FFF7E4FF6B
:1029D00000C10010F0B5DE46574680B583B0070051
:1029E0000D0092460A9A93424DD31A0E110001929D
:1029F0001B02180000930A9A002301F029FB04002F
:102A00007B00DB199E002E4B9C4666447368834214
:102A100000D270603B1FDBB29B46012B39D9C0232B
:102A20009B013343802212011A60BB00254A99584A
:102A3000002905D0506901F0C9FA01300138FDD1F3
:102A400053465B0132685340E0221340802252011A
:102A5000324313605B46012B26D980239B0133430D
:102A6000802212011A6074602200002300980199EC
:102A700001F0EEFABF00134BF850012003B00CBC7C
:102A800092469B46F0BD104B104A2D211048FFF78F
:102A9000E9FE012DC3D1C0239B01334303221A60F9
:102AA000B368DB07FCD5CBE73168694003230B40F3
:102AB0001360B3680122AA401A42FAD0CDE7C0469B
:102AC00000800040600D002088C1001078C1001017
:102AD0009CC1001030B583B00C2000F01DF9FEF74A
:102AE000E5F900280DD0002304E099002D482E4A76
:102AF00088500133092BF8D92C4A2B4B5A6203B06A
:102B000030BD00222A4B9A6700F072F90122294B4E
:102B10001A60274B5B6C012BFBD10322264B1A60FA
:102B2000234B9B6B012BFBD1013300930433234ACE
:102B30000121234800F054F805230093214A012184
:102B4000214800F04DF8214B00930022022104207F
:102B5000FFF740FF1E4D00952B00002201210520AC
:102B6000FFF738FF0F4C00942300002200210720BC
:102B7000FFF730FF00942300002200210820FFF718
:102B800029FF0A4B00932300002200210920FFF7B0
:102B900021FF00952B00002200210620FFF71AFFDD
:102BA000ADE7C046006CDC02600D00201BB70000E2
:102BB000008000403CB0004030B00040002F685919
:102BC00000800240008C864700C00240001BB70016
:102BD000405973078000014BC0587047600D0020BA
:102BE000F0B583B00500019114001E000C2001F027
:102BF000EDF907003A4BE2183A4B9A423DD83A4970
:102C00004143200001F0E2F90200103A98235B00F2
:102C10009A4238D8731E062B3BD8089B013B062BE3
:102C200037D8089B9E423AD323099F423DD83604A9
:102C3000089B1F033E432B68002B3CDB2B4B9D4224
:102C40004BD0802149012A4B19602A4B19602A4A2E
:102C500092680B009343FAD1019B2B60A8602A1D58
:102C6000C0239B01134321221A602A68002AFCDA40
:102C7000EE6008221A6003B0F0BD204B204A1121FB
:102C80002048FFF7EFFD204B1D4A19211D48FFF793
:102C9000E9FD1E4B1A4A1C211A48FFF7E3FD1C4BA5
:102CA000174A22211748FFF7DDFD1A4B144A252148
:102CB0001448FFF7D7FD2A683F231340019A9A4230
:102CC000BCD1AB681B051B0D9842B7D1EB68EE2257
:102CD000D20213409E42B1D1CDE780218901B2E7F3
:102CE00080E84BD380F8A93240420F0000C0024078
:102CF00000E0004000F0004000C00040F0C10010C3
:102D0000E4C1001050C2001094C20010B0C2001004
:102D1000FCC2001014C3001080239B001843014B19
:102D2000D862704700800540024B1A68024B5A6017
:102D30007047C046001200200080054010B5802278
:102D4000D205144B1A60144A144B1A60002917D08C
:102D5000E022D204124B1A60002816D0FA23DB00BE
:102D60005843104B1860104B984202D91A000D4B73
:102D70001A60FFF7D9FF8022D205094B1A6010BDF7
:102D8000E022D204034B1A60E6E780221206044BCD
:102D90001A60F4E700B00540FCFF01000820014084
:102DA00000A0054000120020FFFFFF0010B58024A6
:102DB000E4050B4B1C60002807D10021094BD961A9
:102DC00000211000FFF7BAFF10BD0123034305489F
:102DD000054CC461054C5C40046241628362EFE7CC
:102DE00000B0054000800540D3C007B02D3FF84F2C
:102DF000064BAA2212011A602F22DA60044A054B00
:102E00001A60024B5B68002BFBDA704700400240FF
:102E100000B0FA0000600240704710B5002800D1F1
:102E200010BD0B6849689847FAE710B50400002305
:102E300007E09800C31858004B1C23600B781B1840
:102E4000303B21680A78303AD2B2092AF1D9180009
:102E500010BDF0B5D6464F464646C0B582B0050017
:102E6000009101930A9B99460B9C0C9B98460D9BE5
:102E70009B0717D04B4691461E0022E0541C019B35
:102E800000992020B04701372200AF42F6D35446C4
:102E90000C95350046460C9B98464B460A93B14626
:102EA0001E000EE02700A24643460C939046060003
:102EB0001D00EAE7013C571C305D019B0099A847C3
:102EC0003A00002CF6D14E460D9B9B070BD52C00EB
:102ED000474605E0551C019B00992020A0472A0089
:102EE000931B9F42F6D8100002B01CBC9046994636
:102EF000A246F0BDF0B5CE4600B586B0049205936B
:102F00000C9D0D9C0EAE33789946109A119B129E23
:102F1000B7071CD4002B0CD0F7070AD54F46002F5B
:102F200002D10C37374204D0013B02E030272F5545
:102F30000134944205D21F2CF8D902E030272F55D6
:102F40000134F70703D59C4201D21F2CF6D9F706AE
:102F500015D5770505D4002C03D094421CD09C4293
:102F60001AD00F9A102A23D00F9A102A28D00F9A1D
:102F7000022A2DD01F2C02D830272F5501341F2CA8
:102F80002FD84A46002A29D1720736D4320728D5CD
:102F900020272F55013424E0671E002F06D00F9AFA
:102FA000102A01D03C00DCE7023CDAE73C00D8E71D
:102FB000B206D9D41F2CD7D878272F550134D9E79A
:102FC000B206D4D51F2CD2D858272F550134D1E7BB
:102FD0001F2CCFD862272F550134CBE72D272F5533
:102FE00001340396029301940095059B049AFFF720
:102FF00030FF06B004BC9146F0BD2B272F5501349D
:10300000EFE7F0B5C64600B594B0089009910A9272
:103010000B931AAB10CB1B7898461F9D002C01D147
:1030200010239D438027FF002F4015D0002C20D077
:10303000002711E0AA061AD54121C918C9B20A39D8
:10304000C9B20CABD9551C99200000F0BFFF041E7B
:1030500010D037001F2E0DD81C99200000F0B6FFAD
:10306000CBB27E1C092BE5D83033D9B2E9E7612118
:10307000E3E7002606951E9B05931D9B04931C9B6E
:1030800003934346029301960CAB00930B9B0A9A61
:1030900009990898FFF72EFF14B004BC9046F0BDC4
:1030A000F0B5DE46574680B599B00C900D910E9262
:1030B0000F93209C219D22AB1B789B46249B0A9357
:1030C000259B0B93289B9A4623002B4303D1103357
:1030D00052469A4392468026F60053461E4006D03A
:1030E00023002B432FD000265746099419E057465A
:1030F000099416E0BA0621D54122D218D2B20A3A72
:10310000D2B210AB9A550A9A0B9B0998290000F08D
:103110009FFF09900D000B00034316D026001F2CC3
:103120000ED80A9A0B9B0998290000F091FFD3B2A0
:10313000741C092BDED83033DAB2E2E76122DCE717
:10314000BA46270003E0002701E0BA4627005346AD
:103150000693279B0593269B04930A9B03935B4648
:103160000293019710AB00930F9B0E9A0D990C9848
:10317000FFF7C0FE19B00CBC92469B46F0BD0000A4
:10318000F0B5DE4657464646C0B594B004000691F9
:10319000150007931C9E08961D9F099732003B005F
:1031A0003000390001F0D3F9002800D0E9E0012215
:1031B0005242D04B3000390001F0C4F9002800D051
:1031C000DFE001225242CC4B3000390001F0A4F97B
:1031D000002800D0D5E0002200230898099901F0CA
:1031E0009BF9002800D0E2E0089A099B0A920B9311
:1031F0008023DB00209A1A409246131E01D1063329
:103200001E930A980B9902000B000C920D93030079
:103210000A00024300D1D3E00A00100D4005400D22
:10322000B64EB44660441203120B1E00B44B134357
:103230001F0001F09FF9B34AB34B01F02EF9B34AD6
:10324000B34B01F00BF90C900D910022B14B300003
:10325000390001F0FEF8B04AB04B01F01EF902004F
:103260000B000C980D9901F0F9F801F09BF906009C
:1032700001F080F9AA4AAB4B0C900D9101F00DF9C9
:103280000022A94B01F0EAF801F08CF90700A74AE7
:10329000A74B0C980D9901F000F90C900D91380096
:1032A00001F068F9A34AA44B01F0F7F802000B0003
:1032B0000C980D9901F0CDF802000B000E900F91C3
:1032C00001F0EBF8109011919C4BFB181B050D932E
:1032D00000230C930E980F9902000B0001F0BEF82A
:1032E000129013910E9A0F9B00208021C90501F0C6
:1032F000B0F80E900F910022914B1098119901F0A7
:10330000B2F800228F4B01F0A9F802000B001098D0
:10331000119901F0A8F800228B4B01F09FF80200F0
:103320000B001098119901F09EF802000B000E9806
:103330000F9901F093F802000B001298139901F015
:1033400092F800226E4B01F089F80C9A0D9B01F067
:10335000A4F802000B000C920D930E900F91020046
:103360000B000A980B9901F0D7F8002829D0013EEC
:103370000022744B0E980F9901F075F80C900D9186
:103380001FE0209B04931F9B03931E9B0293089AAC
:10339000099B00920193079B2A000699200000F0E8
:1033A000F7F814B01CBC90469A46A346F0BD089BA3
:1033B0000A93099B80221206944663440B9317E7F5
:1033C000002633006333C62B2BD80427209B1B0514
:1033D00021D50C9A0D9B190011430FD05B4A5C4B11
:1033E0000A980B9901F0A6F800281FD00022594B2B
:1033F0000A980B9901F090F8002817D01E9B9E4266
:1034000011DA9E1B731E1E938023DB00209A1A4341
:103410002092002700261F9B9F4211D2DB1B9B4658
:1034200010E00527D2E700231E93EDE71E9B002B3B
:10343000F1D05346002BEED01E9B013B1E93EAE7D2
:1034400000239B460223209A1A40924603D0002F65
:1034500001D000239B46002E07D00C9A0D9B0A98A2
:103460000B9901F000F80A900B91002200230898B4
:10347000099901F051F8002870D1374B209A134078
:1034800004935B4603931E9B02930A9A0B9B009244
:103490000193079B2A000699200000F079F8002F7D
:1034A00000D17EE7209B9B0663D545230893431CF0
:1034B0009846079B020006990898A047F217B11892
:1034C0005140F30F7A1E05200590049200220392CA
:1034D0000A32029201930091079B4246069920000E
:1034E000FFF78FFD5346002B00D15AE702001F9EC5
:1034F00048E0C046FFFFEF7FFFFFEFFF01FCFFFF4B
:103500000000F03FFB799F501344D33FB3C8608B5A
:10351000288AC63F0000F83F61436F63A787D23F08
:1035200071A379094F930A400000E03F1655B5BBDF
:10353000B16B0240EF39FAFE422EE63FFF03000076
:1035400000002C4000002440000018402D431CEBDC
:10355000E2361A3F80842E41FFF7FFFF0A990A00E6
:103560000B9980200006844661440B000A920B935D
:1035700083E7652308939AE7571C079B0699202049
:10358000A0473A00531B9E42F6D8100009E7C046F8
:10359000F0B5D646474680B597B006900791089299
:1035A0000993209F1E9A1F9B1000190000F0CFFF67
:1035B00000282AD101225242BA4B1E981F9900F0CE
:1035C000ABFF002830D101225242B74B1E981F9901
:1035D00000F0B8FF00283AD00423229A134032D0DA
:1035E000B24A002B31D103232299039121990291F0
:1035F00001930092099B089A07990698FFF729FC06
:1036000017B00CBC90469A46F0BD229B0393219BB9
:10361000029303230193A64B0093099B089A0799F1
:103620000698FFF716FCEBE7229B0393219B02937E
:10363000042301939F4B0093099B089A07990698CE
:10364000FFF707FCDCE79C4ACBE70423CCE700222A
:103650009A4B1E981F9900F075FF002817D1002281
:10366000974B1E981F9900F057FF00280FD100229A
:1036700000231E981F9900F04FFF002817D1002348
:103680009A46229B5B0500D4062700261FE0229B5A
:103690000493219B039302971E9B1F9C009301940C
:1036A000099B089A07990698FFF76AFDA8E71E9AF2
:1036B0001F9B0020002100F0CCFE1E901F910123D3
:1036C0009A46DEE730220EAB9A55013F01361F2E97
:1036D00001D8092FF6D81E981F9900F063FF040047
:1036E00000F048FF02000B001E981F9900F0B1FE89
:1036F000FA00744B9B181A685B680C920D9300F0EB
:10370000CCFE0A900B9100F071FF050000F02EFF37
:1037100002000B000A980B9900F09BFE0A900B9197
:103720000022694B00F00EFF00282CD00135280044
:1037300000F01CFF02000B000C980D9900F0F2FE47
:10374000002801D001340025002F2AD1200000F0EC
:1037500011FF02000B001E981F9900F07AFE002254
:10376000594B0A900B9100F0D7FE002843D100225C
:10377000554B0A980B9900F0E5FE00283BD1E30772
:1037800039D5013437E000224F4B0A980B9900F0ED
:10379000C3FE0028D8D1002D01D0EB07D4D50135C8
:1037A000D2E70A941F2E10D8013F741C0A2128006A
:1037B00000F00CFC30310EAB99550A21280000F0C6
:1037C00005FC051E03D02600ECE70A9C08E0A04695
:1037D0000A9C464604E030210EAA91551F0001368E
:1037E0001F2E02D87B1E002FF5D11F2E03D82E22AC
:1037F0000EAB9A5501361F2E10D8751C0A212000D9
:1038000000F0BCFB30310EAB99550A21200000F0CE
:10381000B5FB041E01D02E00EDE72E000323229AF3
:103820001340012B16D01F2E06D85346002B28D04C
:103830002D220EAB9A550136229B0393219B0293B6
:1038400001960EAB0093099B089A07990698FFF71B
:1038500000FBD5E6219B002B0DD05346002B02D157
:103860000C33134207D0219B013B219303E030220C
:103870000EAB9A550136219B9E42D4D21F2EF6D90B
:10388000D1E7229B5B0704D52B220EAB9A5501365C
:10389000D2E7229B1B07CFD520220EAB9A550136CB
:1038A000CAE7C046FFFFEFFFFFFFEF7F10C5001024
:1038B0001CC5001020C5001018C5001065CDCD41F5
:1038C00065CDCDC128C500100000E03FF0B5DE4653
:1038D00057464E464546E0B593B083460B910A9253
:1038E0001193002912D000275E46119B18780028FA
:1038F00000D1E5E225280CD07C1C0A9B3A000B99EC
:10390000B047119B013311932700EEE7CD4B9B4647
:10391000E9E701331193002506E001231D4301323D
:1039200011920124002C23D0119A1378203BD9B294
:1039300010291BD88B00C449CB589F4602231D4336
:10394000013211920124EDE704231D43013211924B
:103950000124E7E708231D43013211920124E1E726
:1039600010231D43013211920124DBE70024D9E723
:10397000119B1A781300303BDBB2092B10D92A2A8D
:1039800013D0A346119B1A782E2A1ED0119A1378B1
:10399000683BD9B2122959D88B00AC49CB589F4605
:1039A00011A8FFF742FA8346ECE71C9B1A1D1C92F4
:1039B0001B68002B04DB9B46119B01331193E1E74D
:1039C000022215435B429B46F6E78022D200154354
:1039D0005A1C11925A781300303BDBB2092B0BD9D9
:1039E0002A2AD3D11C9B1A1D1C921C68002C08DBB0
:1039F000119B01331193C9E711A8FFF716FA0400D0
:103A0000C4E70024F4E780235B002B43511C119191
:103A100052786C2A01D01D0018E0C0239B001D4382
:103A20000131119112E080232B43511C11915278E6
:103A3000682A01D01D0009E0C0231D430131119106
:103A400004E080235B001D4301321192119B187822
:103A50000300253BDAB2532A00D927E293007C4ABF
:103A6000D3589F4680239B001D4301321192EDE7FE
:103A700080235B001D4301321192E7E778280AD0CA
:103A8000582840D06F2841D0622842D010239D434F
:103A9000063B9C4601E010239C4658283CD06928F0
:103AA00003D0642801D00C2295436B0501D5012277
:103AB0009543692833D0642831D0AB0500D5A4E004
:103AC000EB0500D5C6E06B0600D5D8E02B0600D488
:103AD000DCE01C9A111D1C9112681204120C059551
:103AE0005B46049303946346029300230193009280
:103AF0000A9B3A000B993000FFF783FA0700119BED
:103B000001331193F1E610239C46C6E708239C4637
:103B1000C3E702239C46C0E720221543BFE7AB055D
:103B20001ED4EB054DD46B0663D42B0668D51C9AC6
:103B3000111D1C910023D25ED317D1185940D20F0A
:103B400005955B46049303946346029301920091AA
:103B50000A9B3A000B993000FFF753FA0700CEE7B3
:103B60001C9BDA1D07218A43110008311C91116842
:103B700053689846DB170E930F930E9A0F9B100015
:103B800048400C901900404641400D910C980D9909
:103B9000801A99410C900D914346DA0F08955B46C7
:103BA00007930694634604930023059302920090C2
:103BB00001910A9B3A000B993000FFF771FA070058
:103BC0009DE71C9A111D1C911268D317D1185940FA
:103BD000D20F05955B4604930394634602930192CA
:103BE00000910A9B3A000B993000FFF70AFA070090
:103BF00085E71C9A111D1C911168FF220A409BE762
:103C00001C9A111D1C91126896E71C9BDA1D072156
:103C10008A43110008311C91536812680092019385
:103C2000002208955B460793069463460493059229
:103C300002920A9B3A000B993000FFF731FA070015
:103C40005DE7C046192E001030C3001074C3001089
:103C5000C0C300101C9A111D1C9113680093059598
:103C60005B460493039463460293002301930A9BEB
:103C70003A000B993000FFF7C4F907003FE71C9AA0
:103C8000111D1C911168FF220A4028E71C9A111D82
:103C90001C91126823E7462819D01C9B0733072282
:103CA00093431A0008321C921A685B6800920193D1
:103CB00004955B46039302940A9B3A000B993000EB
:103CC000FFF766FC0700119B013311930DE62023DB
:103CD0001D43E2E767281FD047281DD045281FD085
:103CE00047281DD01C9B0733072293431A00083234
:103CF0001C921A685B680092019304955B460393DB
:103D000002940A9B3A000B993000FFF739FA07003A
:103D1000119B01331193E8E580231B011D43DDE76F
:103D200020231D43DEE702232B409A461ED00125A7
:103D30001C9B1A1D1C927C1C18780A9B3A000B993C
:103D4000B0475346002B22D1119B0133119327001A
:103D5000CBE5541C0A9B0B992020B0472B00220076
:103D60005D1C9F42F5D8BB461700E1E701233A00EE
:103D70005F46F5E7571C0A9B0B992020C04725009A
:103D80003A006C1CAE42F5D814004646DCE722002F
:103D9000B0465E46F5E71C9B1A1D1C921B689846B0
:103DA000002C02D02300414604E001235B42FAE7E5
:103DB000013113000A78002A02D05A1E002BF7D1D5
:103DC0004346CB1A9A468023DB002B40994602D00B
:103DD000A24500D9A24602232B40109315D03A00E9
:103DE0004546B0464E461CE0571C0A9B0B992020C6
:103DF000B0472B003A005D1C9C42F5D8A3465446C0
:103E0000AA464546B0464E460BE03A005346A24607
:103E10005C46F0E71C000135571C0A9B0B99C04714
:103E20003A002878002804D0002EF4D0631E002C1D
:103E3000F0D117004646109B002B0FD1119B013388
:103E4000119352E5551C0A9B0B992020B047230083
:103E50002A005C1C9F42F5D81700EFE75F465346E7
:103E6000F7E721232B431C9A111D1C911268009225
:103E700005930823049303940833029300230193CA
:103E80000A9B3A000B993000FFF7BBF80700119B23
:103E90000133119329E57C1C0A9B3A000B992520DC
:103EA000B047119B0133119327001EE57C1C0A9B30
:103EB0003A000B99B047119B01331193270014E589
:103EC000B3460A9A97420CD3013A0A9B0B990020F9
:103ED000D847380013B03CBC90469946A246AB4642
:103EE000F0BD3A00F1E7C04600B585B002900391FD
:103EF000009313000122524202A90248FFF7E6FC98
:103F000005B000BD1B2E001001480421014B1847CD
:103F1000F0060020453F0010014B9B681847000049
:103F2000F006002010B5010018231B881422108809
:103F3000984710BD10B5010018231B881622108861
:103F4000984710BDF0B5C64600B507000E00002525
:103F50000123984600E00135B5420AD2AC003C1975
:103F60002068FFF7DFFF20600028F4D10023984687
:103F7000F1E7404604BC9046F0BD0000124A936F42
:103F80009B0815D29066D166002905D0FFE7FFE7B0
:103F9000FFE7516F106F704704B580210906C21703
:103FA0005140002800D0C84306F0C2FF002104BDE4
:103FB000F0B5146E556E576F166FFFF7E3FF14667A
:103FC000556657671667F0BD000000D0114A936F21
:103FD0009B0813D210665166002905D0FFE7FFE762
:103FE000FFE7516F106F704704B5002801D0002023
:103FF000C04306F09DFF002104BDC046F0B5146E1D
:10400000556E576F166FFFF7E5FF146655665767D5
:104010001667F0BD000000D094464E4A926F920899
:10402000624601D230E0C046F0B54A4EB56F6D0829
:10403000FCD3346E756E776F366F00F025F89446BA
:10404000444A14665566576716676246F0BDC04617
:104050009446404A926F9208624601D258E0C046A8
:10406000F0B53C4EB56F6D08FCD3346E756E776F4E
:10407000366F00F04DF89446364A14665566576719
:1040800016676246F0BDC046002B24DB11D0002924
:104090003EDA00B5C943404200D1013100F038F8A2
:1040A000C943404200D10131DB43524200D10133C8
:1040B00000BD002AEBD1002801D1002905D0002045
:1040C000C90FC90701D1C043410800B506F020FF60
:1040D0000022002300BD00B500290ADBDB43524269
:1040E00000D1013300F014F8C943404200D101313E
:1040F00000BDC943404200D10131DB43524200D1EF
:10410000013300F005F8DB43524200D1013300BD1A
:10411000002923D1002B18D1002A0CD0BC460D4F0A
:1041200038667A6600210023FFE7FFE7FFE77A6F32
:10413000386F67467047002801D00748010000B576
:1041400006F0E6FE0022002300BD02000B00002066
:1041500000217047000000D0FFFFFFFF002B00D0C0
:10416000BFE0130C28D1002AE7D080B4114F396684
:104170007A66FFE7FFE730B4040C7B6F396F1B04EE
:1041800023433B667A66FFE7FFE7FFE7C04684B25A
:104190007B6F3D6F1B0423433B667A66FFE7FFE7B7
:1041A000C04600232C042D0C7A6F386F001969412A
:1041B000B0BC7047000000D0F0B594460025140E46
:1041C00001D112020835140F01D112010435940FE8
:1041D00001D192000235D40F01D152000135D40B28
:1041E0000134254F7C66254C3C660E0C93B2FFE7EC
:1041F000FFE7FFE73C6F6643360C7703BE46734329
:10420000DF0B5B04C01AB941130C7343DB18C91AE6
:10421000CE086643360CB64493B273431F0F1B019E
:10422000C01AB941130C73431F0B1B05C01AB941C7
:10423000860D8F023E436643360C092D24DB520A5D
:104240007243801A7703460A6643360C16235B1BBB
:10425000DE40DF40BF1964466643821B704604356A
:1042600006330100D940A840C01900D30131A24251
:1042700006D20023F0BD0000000000D0FFFFFFFFCA
:10428000121B0130F3D3F1E709277F1BFE40644680
:10429000A2B27243801A00D20139220C7243130C6D
:1042A0001204821A99410B0070460435133701003D
:1042B000F940A840801900D30131002B02D1A2425D
:1042C0000AD2F0BD013000D30131121BFAD2013BFA
:1042D000F8D1A24200D2F0BD013000D30131121B4F
:1042E000F7E7F0B51C0C00D080E00CB400251C0AE8
:1042F00004D11B02160E3343120208351C0B04D1E5
:104300001B01160F3343120104359C0B04D19B0093
:10431000960F334392000235DC0B02D192185B41B9
:1043200001351C00971864410134464F7C66464CA9
:104330003C660E0CFFE7FFE7FFE7C0463C6F6643B5
:10434000360C7703BE4697B27743C01B00D20139C3
:10435000C01B00D201399FB27743C91BC91B170C80
:1043600077437E04FF0B801BB941CE086643360CB1
:104370000C2D33DBB644120B1F053A431B0B97B2CF
:104380007743C01B00D201399FB27743C91B170C7A
:1043900077433E043F0C801BB941860D8F023E439C
:1043A000664329277F1BFE400C3D7746AF40BF196F
:1043B00030BCA2B2ABB272437343801A9941220C53
:1043C0007243130C1204801A994102000B0001374A
:1043D000001BA941F9D2781E0021F0BD0C277F1BDC
:1043E000FE4077467F0BAF40FF19E0E700245D1CDD
:1043F00007D0144F7D663966FFE7FFE7FFE7FFE769
:104400003C6F95B29EB265436643401BB141150CAB
:104410001E0C6543664336042F0C3E432D04401B9F
:10442000B141994204D202000B0020000021F0BDEE
:1044300001D19042F7D3801A994101349942F2D3C5
:10444000F6E70000000000D0FFFFFFFF48404140BA
:10445000484018B4134B5B68019308BD18B4114B66
:104460001B68019308BD94460F4A926F920805D2CB
:10447000624618B40B4BDB68019308BD0A4AF0B5DD
:10448000146E556E576F166F6246FFF7F2FF064ABD
:104490001466556657671667F0BD18B4014B9B68E4
:1044A000019308BD00130020000000D0FFB550406C
:1044B0004240504059404B40594000E0FFB5154F35
:1044C0004C00640D03D0BC4204D10C0314D800206E
:1044D000090D09055C00640D03D0BC4204D11C0326
:1044E0000AD800221B0D1B0501264B4009D44B4066
:1044F00003D58B4200D18242FFBD9942FCD190424C
:10450000FFBD0B43DB1803431343F5D0C9434918E0
:10451000FFBD0000FF07000000B5FFF7CFFF80419F
:1045200000BDC04600B5FFF7C9FF01D9002000BD9E
:10453000012000BD00B5FFF7B9FF01D9002000BD83
:10454000012000BD00B5FFF7B1FF804100BD012093
:1045500040054A00121804D85A00121801D8002049
:10456000704701207047002070470000002100289C
:1045700005D17047C1174840401AFAD0C90713B592
:10458000064B1B6898470CBC441CA2401005120B3C
:104590000349091B09051943114310BD30120020BE
:1045A0001F04000010B54C00620D8023D218DB0000
:1045B000D21A5B057E2A10DD9E3A13DACC17090366
:1045C000490819435242D140640001341532202A6F
:1045D00005DAD0400843604310BD002010BD0846F6
:1045E000604310BDC80FC018013810BD18B4024B8D
:1045F0005B6A019308BD00000013002018B4024B51
:10460000DB6F019308BD00000013002018B4024BBB
:10461000DB6C019308BD00000013002018B4024BAE
:104620001B6D019308BD00000013002010B5014868
:10463000FEF7B2F93CC6001070B513231C78012CAC
:1046400027D0012C12DD2048FFF774FC05001F481D
:10465000FFF770FC023803789B007F2B1BDD802264
:1046600029001B4800F032FB022C1AD0022C02DC7D
:10467000174B184A9A641848FFF754FC174B1860F8
:1046800070BD9900124A1648885001331F2BF8D983
:10469000D7E70023FAE7134B134A32211348FEF7FA
:1046A000E1F8134B1A88B5231B029A4209D1114B2A
:1046B0001A88114B9A4204D1104B1A88104B9A4217
:1046C000D4D00020FEF768F95344000053460000A0
:1046D00000130020054700104C330000301200206A
:1046E0002D46001078C5001028C60010D8C500104F
:1046F00054380000D8380000494600009C380000BB
:104700005946000007B56046002800D100BE018868
:104710000A0A0230DF2AFAD1C9B2820804D3028819
:1047200040880004104300E00068024A50500390A3
:1047300007BD00000013002051434343C9188C46B5
:10474000110C83B24B4310B4040C614392B280B29B
:10475000504362431C041B0C001910BC5941130444
:10476000120CC0185141614470470000484041405C
:1047700048400E4B5B6818470C4B1B6818470C4AA7
:10478000936F9B0802D2094BDB681847F0B5146E93
:10479000556E576F166FFFF7F6FF054A146655669C
:1047A00057671667F0BD014B9B681847001400203F
:1047B000000000D007B548404140484001E0C046F5
:1047C00007B54200120E03D0FF2A03D1420218D8C7
:1047D000C00DC0054A00120E03D0FF2A03D14A02C1
:1047E0000FD8C90DC9050122414005D4414001D56A
:1047F000814207BD884207BD0143491801D0C0432B
:10480000001807BD00B5FFF7DBFF01D0002000BD99
:10481000012000BD491A002808D108467047000051
:10482000C10FC90700D54042002817D0F44603B491
:104830000B4B1B68984706BC81409E384042803134
:1048400007D20B0607D04900490AC00510430843A8
:1048500060470130F8E7490A8902F5E77047000030
:104860003012002041000A0E80231B067E2A0BDD39
:104870009E3A0BDAC1174002400818435242D0401A
:10488000490001314843704700207047C00FC018ED
:1048900001387047C0420DD300B5400040080021E8
:1048A00000F00EF8002801D4404200BD8020000630
:1048B00000BD0000014BDB69184700000014002018
:1048C000014B5B6A1847000000140020014BDB6FAE
:1048D000184700000014002010B50148FEF75CF8EE
:1048E000D0B0001070B513231D781848FFF722FBD5
:1048F0000400012D11D0012D09DDA31E1B789B00A2
:104900007F2B1DDD80222100114800F0DFF91148C6
:10491000FFF708FB104B186070BD542201000C48D3
:1049200000F0D4F9002300E001331F2BE3D89A00F4
:1049300007495258002AF7D19A0008485050F3E727
:10494000074B084A42210848FDF78CFF53460000F8
:10495000001400204C33000030120020D948001011
:1049600054C60010D4C6001088C6001070B5051CCF
:104970000C0001290CD0C90F09194910FFF7F6FFE7
:10498000011CFFF710FFE30702D5291CFFF70BFFFF
:1049900070BD0000F0B5C64600B5061C0F1C050032
:1049A000C40F30D0CA0DFF2313407F3B0ED4172213
:1049B000D31A1BD4163A9A40013A0A4218D1172B3F
:1049C00018D00A00DA400123134000E00023002B36
:1049D00012D080231B06E818391CFFF7DBFF802369
:1049E0001B069C46604404BC9046F0BD0023EEE7E5
:1049F0000023ECE70123EAE780231B06E818391CB3
:104A0000FFF7C8FFEFE7081CFFF72CFF8046F30D08
:104A1000FF21194005D0FF291ED07502684245418B
:104A200000E00D00002D1CD07F394346FF2B01DD37
:104A3000FF239846234B984500DA9846434659434E
:104A40000B007F33002B05DDFE2B07DCC905FE23A1
:104A50009B05CC18201CC6E70025E3E7FF24E405EE
:104A6000F8E74346002B29D02033402B11D843468A
:104A7000002B04DB4146301CFFF778FFB3E7311C05
:104A8000FE208005FFF77BFE061C43465B429846EE
:104A9000F0E7301CFFF71AFFFFF7C0FD04000D0020
:104AA000381CFFF713FF02000B0020002900FFF75E
:104AB000F4FCFFF7ABFDFFF7A1FD94E7FE208005B6
:104AC00091E7C04600FFFFFFF8B5041C0E1CFE2155
:104AD0008905FFF797FE002800D0C7E0F70DFF25F6
:104AE0003D4000D1C5E06F49201CFFF78BFE002838
:104AF00002D0FF2D00D1BFE0E20DFF23134031D1E2
:104B0000002E15DB7F3D0CD41722551B09D4163A15
:104B1000AA40013A324204D1172D07D0EE400133AA
:104B20003340002B00D1AAE0201CA1E00123F8E7CC
:104B30007F3D0CD41722551B09D4163AAA40013ADE
:104B4000324204D1172D0BD0EE4001233340002B0D
:104B500000D196E0E40FE407FF20C005204387E082
:104B60000123F4E7FF2A14D04F498A4216D0FF2FC1
:104B70004DD04D4A97424ED07F3D51D417235D1BF7
:104B8000002D55DD163BAB40013B334252D0002394
:104B900047E0002E00DB77E0002069E0002E1ADB02
:104BA0007F3D0DD417235D1B0FD4163BAB40013B5B
:104BB00033420CD1172D0CD0EE4001231E4000E0F3
:104BC0000026002E63D0394852E00026F9E700267F
:104BD000F7E70126F5E77F3D0DD417235D1B10D4C1
:104BE000163BAB40013B33420DD1172D0DD0EE40AB
:104BF00001231E4000E00026002E4BD0802000063E
:104C000036E00026F8E70026F6E70126F4E77E2BDB
:104C100042DC00202CE07E2B41DCFF20C00527E099
:104C20000023002B08D1002C0BDAFF20C0051FE069
:104C30000123F6E70123F4E7311C201CFFF7AAFE4D
:104C400016E0201CFFF742FEFFF7E8FC04000D0011
:104C5000301CFFF73BFE02000B0020002900FFF78D
:104C60001CFCFFF7D3FCFFF7C9FC01E0FE20800528
:104C7000F8BDFE208005FBE7FE208005F8E7002058
:104C8000F6E7FF20C005F3E7FF20C005F0E7FF20AF
:104C9000C005EDE70020EBE7FF20C005E8E70020B6
:104CA000E6E7C046000080BFFF010000000080FF73
:104CB00001480421014B184700070020453F001020
:104CC000014B1B681847000000070020014B5B6880
:104CD000184700000007002010B50C000368110001
:104CE0002000984710BD0000F8B507000D00160021
:104CF000437C002B02D0002400200CE0036811004C
:104D00002800984729E03B7C10E0022116483B68C8
:104D10009847601C0134B44214DA002CF3DD2B19DF
:104D2000013B1B780D3B59425941CBB22A5D0A2AFF
:104D3000F0D1002BEED1A042E7DA211A28183B6807
:104D40009847E2E7B04209DB002E06DDAD19013DD0
:104D50002B780D3B594259413974F8BD311A281846
:104D60003B689847F0E7C04650C7001070B5050093
:104D70000368002B16D00C4B1C6805E0291D2A681F
:104D80002000FFF7B1FFE468002C09D02368002B56
:104D9000F9D0064B1B68002BF0D09C42F3D1EDE715
:104DA00000232B6070BDC046F80D0020FC0D0020D4
:104DB00070B505000C000B68802B05D023685A1CC9
:104DC0002260E418257170BD0800FFF7CFFFF5E7FA
:104DD00010B582B0D0231B0600241C5701A9074838
:104DE00006F0B6F8002806D1019B9C4203D0034888
:104DF00006F0CEF8012002B010BDC0465C070020CE
:104E000010B5024806F07CF810BDC0465C070020D3
:104E1000F0B5C64600B584B001900D0017001C0027
:104E2000FFF7D6FF80466B1C05D0002C08D0194E2A
:104E3000194B1C680DE0019805F0D2FF0500F4E75E
:104E4000164EF5E72A0001992000B047002F0CD13B
:104E5000E468002C11D02368002BF9D0104B1B689C
:104E6000002BEFD09C42F3D1ECE702ABD91D0A2313
:104E70000B7001222000B047EAE74346002B06D121
:104E8000681E8541E8B204B004BC9046F0BDFFF74F
:104E9000B7FFF5E7D94C0010F80D0020E94C0010E1
:104EA000FC0D0020094A1368002B0BD0834202D06E
:104EB0000C331A00F7E7002907D1C36813600023F9
:104EC000C36002E0002900D010607047F80D002098
:104ED00010B5064B1C6800E0E468002C04D0636841
:104EE000002BF9D09847F7E710BDC046F80D002019
:104EF00070B5050005F074FF0400002301220100D5
:104F00002800FFF785FFFFF7E3FF200070BD0000DA
:104F100070B5A2B004000E00FFF75AFF050084220E
:104F2000002101A8FFF7CCFE3300220001A90848A8
:104F3000FEF7DAFF040001A8FFF718FFFFF7C8FF2C
:104F4000002D02D1200022B070BDFFF759FFF9E714
:104F5000B14D00100FB400B583B004A901C901918F
:104F6000FFF7D6FF03B008BC04B0184710B500F037
:104F700055F910BD704700000022014B1A707047B0
:104F8000721200204B79FF2B01D0002070478B79E3
:104F9000002B0BD1CB79012B01D00020F6E7082A9A
:104FA00006D98A78034B1A700920EFE70020EDE755
:104FB0000020EBE7721200200120704770B5002935
:104FC0002BD1117953791B020B43154909788B4278
:104FD00001D0002022E05378012B03D0022B15D002
:104FE00000201BE09178D3781B020B43DA0503D530
:104FF0005A0A0125954000E000257F241C400948FD
:10500000FEF790FF0300210028009847642200214A
:105010000020FDF7CBFE012000E0012070BDC0465E
:1050200072120020554200000123037000487047AF
:1050300054C7001010B50B784A7812021A438B78C7
:105040001B041A43CB781B0613439622D2009342CB
:1050500000D010BD0348FEF765FF030000210800E3
:105060009847C0465542000030B583B004000D009B
:1050700001A9184805F06CFF002808D1D0231B06B1
:105080001B68019A934221D0124805F081FF00204D
:1050900001F06AFE002807D1032464420D4805F0A0
:1050A0002FFF200003B030BD002001F07FFE00285C
:1050B00002D103246442F1E72A002100002001F01C
:1050C00083FE041EEAD103246442E7E7032464421A
:1050D000E7E7C0463812002010B50021054805F06A
:1050E00037FF002800D110BD01F0D0FB014805F0CA
:1050F00007FFF8E738120020F0B5C64600B582B0C9
:1051000080460D0001A92E4805F022FF002808D195
:10511000D0231B061B68019A93420FD0284805F044
:1051200037FF002001F020FE002847D10020002199
:10513000244B18605960224805F0E2FE02B004BC1E
:105140009046F0BD01F0A2FB002001F051FE0020CE
:1051500001F00AFE0028EED0002001F0CBFE00286E
:105160001DD0AC42E7DA2E1B002001F0C3FE8642C0
:1051700000DC30000028E5D0434619190200002069
:1051800001F09CFE060001F081FB002001F030FEE2
:10519000A419FDF731F80B4B18605960E1E7FDF7F2
:1051A0002BF8084B1E685F68074A002392197B4161
:1051B0009942C0D8D5D19042D3D9BCE70024D0E7DA
:1051C000381200208008002020A1070010B50A4BEB
:1051D0001A78D0231B061B689A4207D1074B187810
:1051E000FBF71CFFFA208000002110BD044B054A8C
:1051F00032210548FDF736FB75120020731200209E
:10520000B0C7001090C70010D8C7001010B5024BEF
:105210001878FBF703FF10BD7312002070B584B03F
:10522000D0231B061A782C4B1A702C4B1B7802F0DB
:10523000A7F82B48FDF7E0FA0120FCF7D1F9C0B23E
:10524000284C20702849FBF70BFF20780121FBF741
:10525000DDFE0520FBF7F2FE041E09D000222349E3
:105260000520FBF727FF002C31D1200004B070BDD2
:10527000FCF740FD0400FCF7BFFF002905DA1C4BDA
:105280001C4A3F211C48FDF7EDFAFA229200002348
:1052900012184B41994202D804D1904202D90122FE
:1052A0005242D317002B05DA114B124A3F21124804
:1052B000FDF7D8FA01210291002101910F490091D7
:1052C0002000FCF72DFD441EA041C4B2CBE7012114
:1052D0000B48FFF7E7FDC8E7751200209C5104104A
:1052E0003812002073120020D95000100D52001007
:1052F000BCB9001078C70010D8B90010CD5100100B
:105300001007002000487047A4C8001000487047EC
:1053100050C8001010B50400144B1B78002B0DD0A2
:10532000002C10D1124A134B5A80012301335B0029
:10533000C022920013430F48038010BD11210B4877
:1053400002F0E4FBECE7052C0ED8A4000A4BE4586D
:105350000023122BEAD8E25C002AE7D0013359007F
:1053600004484252DBB2F4E70020E6E75012002086
:1053700009040000D00D0020B8C800107F230340AE
:10538000C209580080184001014B18187047C046E8
:10539000000E002010B582B001AB00221A708032DE
:1053A0005A70002406E001AB185DFFF7E7FF012308
:1053B000C3700134012CF6D902B010BD10B5838B37
:1053C0003F333F229343022915D0124C2268C2601A
:1053D000D31823609C0610D10F4C62406340802498
:1053E0006401A3420FD88906114380231B06194389
:1053F0004368196010BD5B00E7E7084B084A542179
:105400000848FDF72FFA084B054A56210548FDF7D5
:1054100029FAC0460C1200200000105030C90010BC
:10542000D0C8001060C90010BCC90010F8B5050054
:105430000E001400FFF7A2FF7F232B406FB2857090
:10544000FA43D20F42700022C27086838477002F05
:1054500015DBDA0012498C466244826082680021C2
:105460001160002B11D0002F13DB013BDB000D4A34
:105470009446634443602100FFF7A0FFF8BDDA00C3
:1054800009498C4662448260E8E74360074BC36089
:10549000F4E7013BDB00064A944663444360EAE7D5
:1054A000840010500C00105080001050000110506B
:1054B0000800105010B5002308E00133DA00002185
:1054C00009481150844662445160DBB20E2BF4D976
:1054D000F0229200002105484030FFF7F1FB044A1A
:1054E000044B1A6010BDC04600001050000E002092
:1054F000800110500C120020F0B5CE46474680B512
:1055000083B01D4B9E6D0024012503E0AE436D006A
:105510000134E4B2002E29D01F2C27D83542F6D012
:10552000164B9D65630898460127674001231F407D
:1055300043465B00DB195B01114A9146994448469A
:1055400000F0AAFA0028E1D043465B00DF197F0192
:105550000B4BDF19BA8AB97801230093002300208E
:1055600000F00FFE484600F007FACFE703B00CBC8E
:1055700090469946F0BDC0460000115000301150D1
:10558000000E002070B59823294AD458E3030BD4A9
:105590000025E30616D4E30419D4630429D42304B4
:1055A00033D4A5423ED170BDFFF7F4FE012221495C
:1055B000002000F0CDFD802292021F4B1A6580254D
:1055C0006D02E6E710231D43FFF796FFE3E7802314
:1055D0005B011D430022164B1A60FFF76BFF01228F
:1055E0000021002000F09FFD80221203124B1A655B
:1055F000D3E78023DB011D4301220421002000F0BA
:105600007FFD10220C4B1A65C9E780231B021D4346
:1056100001220521002000F073FD80221201064BBB
:105620001A65BEE7290061400448FDF7B5F9C04698
:10563000000011500000105000301150FCC9001043
:1056400070B50C001500FFF799FE2A00210000F04C
:10565000FFF970BD10B5002804D101210520FBF72A
:10566000D5FC10BD034B044AB92149000348FDF79E
:10567000F9F8C046F0C90010F0C8001060C9001069
:1056800010B5002805D1002200218020FFF7D8FFA7
:1056900010BD034B034ABF2149000348FDF7E2F860
:1056A000F0C9001000C9001060C900108022520229
:1056B000014BDA647047C0460020115070B5051EDA
:1056C00025D100F033F9154C0C23A36714490520AC
:1056D000FBF7C6FC402200211248FFF7F1FA002236
:1056E00040210020FFF7A2FE002240218020FFF78A
:1056F0009DFEFFF7DFFE0123236480239B05E36407
:10570000094A9023E2502800FFF7D0FF70BD074BF5
:10571000074A4E21FF310748FDF7A4F80000115059
:1057200085550010000E002010D00100F0C90010B7
:10573000E4C8001060C900100B785B0602D14B78FA
:10574000052B00D070478A78014B1A60FAE7C046F3
:105750000000115010B50C0000280DD109796279B4
:10576000072313401B021943E2789207920FA07897
:10577000FFF75CFE012010BD034B044AD62149000F
:105780000348FDF76FF8C046F0C9001010C90010BB
:1057900060C9001010B5FFF78DFE10BD10B50C00EC
:1057A0001100002805D11A002000FFF749FF012051
:1057B00010BD034B034ABC21FF310348FDF752F8EB
:1057C000F0C9001020C9001060C9001010B54B06C8
:1057D00005D14BB2002B0BDB0222064B9A66080068
:1057E000FFF7CCFD80221201002100F0CBF810BDA4
:1057F0000122F2E70020115010B54B0600D110BD78
:105800000800FFF7BBFD0023C3700022014900F030
:10581000B9F8F4E7FFF7FFFFF8B504000F00438A7B
:10582000828B1E1C934200D9161CB6B29B1B63824E
:105830008025ED003543E378002B13D080229201C0
:10584000154301225340E3706378002B0CD0638A28
:10585000002B02D18023DB011D43002F00D02D043B
:105860002800F8BD0022EBE7B801E3689C466044DD
:105870003200A169FFF72AFAA3699C466644A66133
:1058800080231B021D43E2E770B5040083681B6898
:10589000002900D01B0C9D05AD0D6278002A11D1A6
:1058A0001B0409D4A38AEB18A382A38B9D4201D2C7
:1058B00000236382280070BD0E4B0F4AD7210F488A
:1058C000FCF7D0FF1B040ED58901E3689C466144B8
:1058D0002A00A069FFF7FAF9A38AEB18A382A3694B
:1058E0005B19A361E1E7064B034ADE210348FCF79D
:1058F000B9FFC046A8CA001010CA0010C8CA0010DC
:1059000024CB001010B5040083681B680021FFF74A
:10591000BBFF63681B685B0002D5A38B984200D075
:1059200010BD01212000FFF7AFFFF9E710B580237C
:105930005B040C4A13600C4A13600C4B9A6880237A
:105940005B049343F9D10A4C9C2200212000FFF70D
:10595000B7F98022520100210648FFF7B1F9092367
:10596000636710BD00E0004000F0004000C0004050
:105970000000115000001050002303744382838202
:105980008361704710B5002902D083681B681940F5
:10599000002A0FD0114353050CD5826813685B05AC
:1059A0000BD40B4B0B401360FFE7FFE7FFE7FFE76C
:1059B000FFE7FFE78368196010BD83787F211940F6
:1059C000DB099B00034A9A580348FCF7E5FFC046F1
:1059D000FFFBFFFF2407002020CA001070B5040061
:1059E00043681E680021FFF717FF80256D010543FE
:1059F000144B1B6C9B0705D40223E356002B14DBCE
:105A0000012300E00023628A002A01D0002B0ED07F
:105A10000D4B1E4080239B053343626813602A00B0
:105A200000212000FFF7AEFF70BD0023EBE701214E
:105A30002000FFF7F1FE0543044B1E40A023DB05C9
:105A40003343EAE700001150FFFFFFAFFFFFFFDF26
:105A500070B504000D001600037C002B09D166828E
:105A60000023A38201332374A5612000FFF7B6FF52
:105A700070BD83787F211940DB099B00044A9A5846
:105A80000448FFF767FA2000FFF776FFE7E7C04614
:105A9000240700206CCA001070B50400057C002D9E
:105AA00006D0FFF72FFF638A002B08D1280070BDB6
:105AB00081787F231940044A0448FCF76DFF2000D9
:105AC000FFF78CFF0025F1E72407002040CA0010F3
:105AD00070B5050000240DE0E31ADBB2002B1CD1E9
